{"abi":[{"type":"constructor","inputs":[{"name":"_swapRouter","type":"address","internalType":"address"}],"stateMutability":"nonpayable"},{"type":"function","name":"SWAP_ROUTER","inputs":[],"outputs":[{"name":"","type":"address","internalType":"address"}],"stateMutability":"view"},{"type":"function","name":"USDC","inputs":[],"outputs":[{"name":"","type":"address","internalType":"address"}],"stateMutability":"view"},{"type":"function","name":"USDT","inputs":[],"outputs":[{"name":"","type":"address","internalType":"address"}],"stateMutability":"view"},{"type":"function","name":"USDm","inputs":[],"outputs":[{"name":"","type":"address","internalType":"address"}],"stateMutability":"view"},{"type":"function","name":"balanceOf","inputs":[{"name":"token","type":"address","internalType":"address"}],"outputs":[{"name":"","type":"uint256","internalType":"uint256"}],"stateMutability":"view"},{"type":"function","name":"deposit","inputs":[{"name":"token","type":"address","internalType":"address"},{"name":"amount","type":"uint256","internalType":"uint256"}],"outputs":[],"stateMutability":"nonpayable"},{"type":"function","name":"owner","inputs":[],"outputs":[{"name":"","type":"address","internalType":"address"}],"stateMutability":"view"},{"type":"function","name":"swap","inputs":[{"name":"tokenIn","type":"address","internalType":"address"},{"name":"tokenOut","type":"address","internalType":"address"},{"name":"fee","type":"uint24","internalType":"uint24"},{"name":"amountIn","type":"uint256","internalType":"uint256"},{"name":"amountOutMin","type":"uint256","internalType":"uint256"},{"name":"sqrtPriceLimitX96","type":"uint160","internalType":"uint160"}],"outputs":[{"name":"amountOut","type":"uint256","internalType":"uint256"}],"stateMutability":"nonpayable"},{"type":"function","name":"swapMultiHop","inputs":[{"name":"path","type":"bytes","internalType":"bytes"},{"name":"amountIn","type":"uint256","internalType":"uint256"},{"name":"amountOutMin","type":"uint256","internalType":"uint256"}],"outputs":[{"name":"amountOut","type":"uint256","internalType":"uint256"}],"stateMutability":"nonpayable"},{"type":"function","name":"transferOwnership","inputs":[{"name":"newOwner","type":"address","internalType":"address"}],"outputs":[],"stateMutability":"nonpayable"},{"type":"function","name":"withdraw","inputs":[{"name":"token","type":"address","internalType":"address"},{"name":"amount","type":"uint256","internalType":"uint256"},{"name":"to","type":"address","internalType":"address"}],"outputs":[],"stateMutability":"nonpayable"},{"type":"event","name":"Deposited","inputs":[{"name":"token","type":"address","indexed":true,"internalType":"address"},{"name":"amount","type":"uint256","indexed":false,"internalType":"uint256"}],"anonymous":false},{"type":"event","name":"Swapped","inputs":[{"name":"tokenIn","type":"address","indexed":true,"internalType":"address"},{"name":"tokenOut","type":"address","indexed":true,"internalType":"address"},{"name":"amountIn","type":"uint256","indexed":false,"internalType":"uint256"},{"name":"amountOut","type":"uint256","indexed":false,"internalType":"uint256"}],"anonymous":false},{"type":"event","name":"Withdrawn","inputs":[{"name":"token","type":"address","indexed":true,"internalType":"address"},{"name":"amount","type":"uint256","indexed":false,"internalType":"uint256"},{"name":"to","type":"address","indexed":false,"internalType":"address"}],"anonymous":false}],"bytecode":{"object":"0x60a060405234801561000f575f80fd5b50604051610d7f380380610d7f83398101604081905261002e91610050565b5f80546001600160a01b031916331790556001600160a01b031660805261007d565b5f60208284031215610060575f80fd5b81516001600160a01b0381168114610076575f80fd5b9392505050565b608051610cce6100b15f395f818161018b015281816104910152818161057b01528181610717015261086f0152610cce5ff3fe608060405234801561000f575f80fd5b50600436106100a6575f3560e01c806389a302711161006e57806389a302711461013e5780638da5cb5b14610159578063c54e44eb1461016b578063c600589314610186578063e06b421b146101ad578063f2fde38b146101c0575f80fd5b806347e7ef24146100aa57806369328dec146100bf57806370a08231146100d2578063845f433f146100f8578063864350601461010b575b5f80fd5b6100bd6100b8366004610a20565b6101d3565b005b6100bd6100cd366004610a4a565b6102c1565b6100e56100e0366004610a89565b6103a5565b6040519081526020015b60405180910390f35b6100e5610106366004610aab565b610413565b61012673765de816845861e75a25fca122bb6898b8b1282a81565b6040516001600160a01b0390911681526020016100ef565b61012673ceba9300f2b948710d2653dd7b07f33a8b32118c81565b5f54610126906001600160a01b031681565b6101267348065fbbe25f71c9282ddf5e1cd6d6a887483d5e81565b6101267f000000000000000000000000000000000000000000000000000000000000000081565b6100e56101bb366004610b23565b610699565b6100bd6101ce366004610a89565b61097a565b5f546001600160a01b031633146102055760405162461bcd60e51b81526004016101fc90610b96565b60405180910390fd5b6040516323b872dd60e01b8152336004820152306024820152604481018290526001600160a01b038316906323b872dd906064016020604051808303815f875af1158015610255573d5f803e3d5ffd5b505050506040513d601f19601f820116820180604052508101906102799190610bb9565b50816001600160a01b03167f2da466a7b24304f47e87fa2e1e5a81b9831ce54fec19055ce277ca2f39ba42c4826040516102b591815260200190565b60405180910390a25050565b5f546001600160a01b031633146102ea5760405162461bcd60e51b81526004016101fc90610b96565b60405163a9059cbb60e01b81526001600160a01b0382811660048301526024820184905284169063a9059cbb906044016020604051808303815f875af1158015610336573d5f803e3d5ffd5b505050506040513d601f19601f8201168201806040525081019061035a9190610bb9565b50604080518381526001600160a01b0383811660208301528516917fcbcdbdf10631a43cc99c80acace8232649421c3f4f73919f16013d47c83a687a910160405180910390a2505050565b6040516370a0823160e01b81523060048201525f906001600160a01b038316906370a0823190602401602060405180830381865afa1580156103e9573d5f803e3d5ffd5b505050506040513d601f19601f8201168201806040525081019061040d9190610bd8565b92915050565b5f80546001600160a01b0316331461043d5760405162461bcd60e51b81526004016101fc90610b96565b5f831161047a5760405162461bcd60e51b815260206004820152600b60248201526a16995c9bc8185b5bdd5b9d60aa1b60448201526064016101fc565b60405163095ea7b360e01b81526001600160a01b037f0000000000000000000000000000000000000000000000000000000000000000811660048084019190915260248301869052870135919082169063095ea7b3906044016020604051808303815f875af11580156104ef573d5f803e3d5ffd5b505050506040513d601f19601f820116820180604052508101906105139190610bb9565b506040805160c06020601f8901819004028201810190925260a081018781525f928291908a908a90819085018382808284375f920191909152505050908252503060208201526040016105684261012c610bef565b81526020018681526020018581525090507f00000000000000000000000000000000000000000000000000000000000000006001600160a01b031663c04b8d59826040518263ffffffff1660e01b81526004016105c59190610c0e565b6020604051808303815f875af11580156105e1573d5f803e3d5ffd5b505050506040513d601f19601f820116820180604052508101906106059190610bd8565b92505f83116106495760405162461bcd60e51b815260206004820152601060248201526f135d5b1d1a4b5a1bdc0819985a5b195960821b60448201526064016101fc565b60408051868152602081018590525f916001600160a01b038516917fa078c4190abe07940190effc1846be0ccf03ad6007bc9e93f9697d0b460befbb910160405180910390a35050949350505050565b5f80546001600160a01b031633146106c35760405162461bcd60e51b81526004016101fc90610b96565b5f84116107005760405162461bcd60e51b815260206004820152600b60248201526a16995c9bc8185b5bdd5b9d60aa1b60448201526064016101fc565b60405163095ea7b360e01b81526001600160a01b037f0000000000000000000000000000000000000000000000000000000000000000811660048301526024820186905288169063095ea7b3906044016020604051808303815f875af115801561076c573d5f803e3d5ffd5b505050506040513d601f19601f820116820180604052508101906107909190610bb9565b505f604051806101000160405280896001600160a01b03168152602001886001600160a01b031681526020018762ffffff168152602001306001600160a01b031681526020014261012c6107e49190610bef565b8152602080820188905260408083018890526001600160a01b03808816606094850152815163414bf38960e01b815285518216600482015292850151811660248401529084015162ffffff16604483015291830151821660648201526080830151608482015260a083015160a482015260c083015160c482015260e0830151821660e48201529192507f0000000000000000000000000000000000000000000000000000000000000000169063414bf38990610104016020604051808303815f875af11580156108b6573d5f803e3d5ffd5b505050506040513d601f19601f820116820180604052508101906108da9190610bd8565b91505f82116109195760405162461bcd60e51b815260206004820152600b60248201526a14ddd85c0819985a5b195960aa1b60448201526064016101fc565b866001600160a01b0316886001600160a01b03167fa078c4190abe07940190effc1846be0ccf03ad6007bc9e93f9697d0b460befbb8785604051610967929190918252602082015260400190565b60405180910390a3509695505050505050565b5f546001600160a01b031633146109a35760405162461bcd60e51b81526004016101fc90610b96565b6001600160a01b0381166109e85760405162461bcd60e51b815260206004820152600c60248201526b5a65726f206164647265737360a01b60448201526064016101fc565b5f80546001600160a01b0319166001600160a01b0392909216919091179055565b6001600160a01b0381168114610a1d575f80fd5b50565b5f8060408385031215610a31575f80fd5b8235610a3c81610a09565b946020939093013593505050565b5f805f60608486031215610a5c575f80fd5b8335610a6781610a09565b9250602084013591506040840135610a7e81610a09565b809150509250925092565b5f60208284031215610a99575f80fd5b8135610aa481610a09565b9392505050565b5f805f8060608587031215610abe575f80fd5b843567ffffffffffffffff80821115610ad5575f80fd5b818701915087601f830112610ae8575f80fd5b813581811115610af6575f80fd5b886020828501011115610b07575f80fd5b6020928301999098509187013596604001359550909350505050565b5f805f805f8060c08789031215610b38575f80fd5b8635610b4381610a09565b95506020870135610b5381610a09565b9450604087013562ffffff81168114610b6a575f80fd5b9350606087013592506080870135915060a0870135610b8881610a09565b809150509295509295509295565b6020808252600990820152682737ba1037bbb732b960b91b604082015260600190565b5f60208284031215610bc9575f80fd5b81518015158114610aa4575f80fd5b5f60208284031215610be8575f80fd5b5051919050565b8082018082111561040d57634e487b7160e01b5f52601160045260245ffd5b5f6020808352835160a0602085015280518060c08601525f5b81811015610c435782810184015186820160e001528301610c27565b505f85820160e0015260208601516001600160a01b038116604087015292506040860151606086015260608601516080860152608086015160a086015260e0601f19601f83011686010193505050509291505056fea2646970667358221220f90eaf7c2432f018339332f993967cfa44e12294ff46644b2cca0e778d9958de64736f6c63430008180033","linkReferences":{}},"methodIdentifiers":{"SWAP_ROUTER()":"c6005893","USDC()":"89a30271","USDT()":"c54e44eb","USDm()":"86435060","balanceOf(address)":"70a08231","deposit(address,uint256)":"47e7ef24","owner()":"8da5cb5b","swap(address,address,uint24,uint256,uint256,uint160)":"e06b421b","swapMultiHop(bytes,uint256,uint256)":"845f433f","transferOwnership(address)":"f2fde38b","withdraw(address,uint256,address)":"69328dec"},"id":22}